:030000000201C535
:0C01C500787FE4F6D8FD75811B02020C67
:1002C500060E0101010101010608FFFFFFFFFFFF07
:0D0251007F1E7E0012025EB2B37F1E7E0093
:10025E00D3EF9400EE940040147D6E7C00ED1D7083
:0D026E00011CED4C70F7EF1F70E61E80E3E1
:01027B002260
:10030400EF7007D2B2C2B3D2B422BF0107C2B2D2D5
:0E031400B3D2B422BF0206D2B2D2B3C2B42218
:100003007590EFE4F519209021AF167E0012025E81
:10001300209008E51925E025E0F517E517C3940AB4
:100023005008E51B640160020518209122AF167E7B
:100033000012025E209109E51925E025E004F51779
:10004300E517C3940A5008E51B64016002051820F4
:100053009223E51B6401601DAF167E0012025E2031
:10006300920AE51925E025E02402F517E517C39464
:100073000A50020518209323E51B6401601DAF1687
:100083007E0012025E20930AE51925E025E0240391
:10009300F517E517C3940A500205187F057E001271
:1000A300025E85901443140FE51425E0F514431400
:1000B3000F8514900519E519C39404500302000930
:1000C300E51724F3600E047030E4FF120304E4F533
:1000D30018F51B22E51BB4010F7F02120304E4F59C
:1000E30018751B0275150122E51B700DC2B67F0A38
:0A00F300FE12025ED2B6E4F51722F9
:1000FD00E5157032E51824FE6015146017146019AB
:10010D0014601B14601D2405701C8517088017854D
:10011D001709801285170A800D85170B8008851722
:10012D000C800385170DE51564017044E51824FE58
:10013D00601814601D14602214602714602C2405AF
:10014D00702E85170E851708802685170F851709C0
:10015D00801E85171085170A801685171185170BB8
:10016D00800E85171285170C800685171385170DC0
:10017D00E51864067040E515B40103E4F515E4F5E2
:10018D0018F51A7408251AF8E6FF740E251AF8E604
:10019D006F6012D2B2C2B6120251B2B3120251B294
:1001AD00B3D2B6C322051AE51AC3940640D5751B02
:0801BD00011202A3D322C322A8
:10027C00E4FF120304C2B67F147E0012025ED2B6F3
:10028C00E4F592F59175984075D7E075D6FE758EAC
:07029C0014438E01D29922E8
:1002A300851B993099FDC299E4FB7FE87E03120216
:1002B3005E3099FDC299740E2BF8E6F5990BBB06D7
:0102C300E951
:0102C4002217
:0F02D500011800011500011B000117FF0116059C
:1002E50012027C1200031200FD50087F0112030464
:0F02F500751B01E518D3940640E9E4F51880E481
:1001D1000202E5E493A3F8E493A34003F68001F25D
:1001E10008DFF48029E493A3F85407240CC8C3332F
:1001F100C4540F4420C8834004F456800146F6DFFE
:10020100E4800B01020408102040809002C5E47EC6
:10021100019360BCA3FF543F30E509541FFEE493F2
:10022100A360010ECF54C025E060A840B8E493A3B9
:10023100FAE493A3F8E493A3C8C582C8CAC583CAE4
:10024100F0A3C8C582C8CAC583CADFE9DEE780BE9C
:0102E4000019
:00000001FF
